:100000006DEF00F00000000000EF00F000000000C5
:0A0010000000000000000000F3D71C
:10001C007F6A800E7E6E3F0E6F6E010E6E6E7C6A76
:10002C007D6A010E7A6EFF0E7B6EB86AB96A120099
:10003C00156A166A80848086828082928294828677
:10004C008380839283948386010E156E000E166E48
:10005C00800E1618006E800E100A005C02E1000E75
:10006C00155C23E215500008036E16C004F0100E48
:10007C00045604C000F0000E04BEFF0E016EFF0E0D
:10008C000014016E01C078FFFF0E0314006E00C057
:10009C0079FF01C076FF00C077FF100E0D6E0D2E9C
:0C00AC00FED70000154A162AD3D7120018
:1000B8009294929693909392939493969398939AFA
:1000C80094909492949494969590959295949596EC
:0200D800120014
:1000DA00EEDF9FDF8188819AACDF8178817AFCD755
:0200EA00FFD73E
:020000040030CA
:0D000100C20E3E3C9D81FF0FC00FE00F407E
:00000001FF
