:1000000000EF02F00000000000EF00F00000000030
:0A0010000000000000000000F3D71C
:0A001C00530E0D6E0D2EFED71200DC
:10002600240E0C6EB50E0D6E0D2EFED70C2EFCD7C3
:06003600000000001200B2
:0C003C00000000000000000000001200A6
:100048003DBE02D0839E01D0838E3DBC02D0839CEE
:1000580001D0838C3DBA02D0839A01D0838A3DB8FF
:1000680002D0839801D0838830B002D0808401D038
:1000780080948082DFDF80923DB602D0839E01D0DB
:10008800838E3DB402D0839C01D0838C3DB202D0D4
:10009800839A01D0838A3DB002D0839801D08388A7
:1000A80030B002D0808401D080948082C3DF8092F7
:0C00B80030A002D0B4DF01D0ADDF120098
:0C00C400240E0D6E0D2EFED70000120061
:0C00D00030903CC03DF0B8DF30801200E2
:1000DC000B6A0A6A096A00500402F4CF09F0F3CFE4
:1000EC0008F001500502F4CF0BF0F3CF0AF00050EA
:1000FC000502F3500926F4500A22E86A0B2201503B
:10010C000402F3500926F4500A22E86A0B2208C0B4
:10011C0000F009C001F00AC002F00BC003F012009D
:10012C00929292949598959A959C959E8092809493
:10013C00839E839C839A839870DF6FDF6EDF838A44
:10014C008388808275DF809268DF808271DF809285
:10015C0064DF80826DDF809260DF8398808268DF4D
:10016C0080925BDF808264DF8092839A838E8082B0
:10017C005FDF809252DF839E8388808259DF80927A
:10018C008398808255DF809248DF808251DF809295
:10019C00838880824DDF809240DF8398808248DFA5
:1001AC008092838E838C838A8388808241DF8092C5
:0601BC0034DF3080120068
:1001C200086A096A100E0C6E0134083609360450AA
:1001D200085E0550D8A0053C095ED8B007D004508F
:1001E20008260550D8B0053C0926D89000360136BD
:0601F2000C2EEAD71200FA
:1001F800FF0E316EFF0E326EFF0E336EFF0E346E41
:10020800C26A1D1C006E0050C116070EC012C08EB7
:04021800C28012008E
:10021C00C26A1D1C006E0050C116070EC012C08EA3
:10022C0037C000F000360090003600900050C2122B
:10023C00C28042DFC282C2A201D0FDD7C4CF01F07E
:0E024C00006AC3500012000E0112C290120090
:10025A000FD0800E376E19D0C00E376E16D0940E9E
:10026A00376E13D0D40E376E10D0800E376E0DD085
:10027A003750010AEEE03750020AEEE03750030A1F
:10028A00EEE03750040AEEE0F0D73804006E37503B
:10029A00002600C037F000C03DF0D1DE30903B6A46
:1002AA003B503924E96E000E3A20EA6EEE520BE01A
:1002BA003B503924E96E000E3A20EA6EEECF3CF04C
:0A02CA0002DF3B2AEDD7308012005E
:1002D400010EC26E0E0EC16E820EC06E8BDF24DF65
:1002E4000C0E3D6EAFDE010E3D6EACDE010E376EC0
:1002F400010E386E150E396E000E3A6EACDF1A0E12
:100304000B6E5E0E0C6E6E0E0D6E0D2EFED70C2E49
:0A031400FCD70B2EFAD700001200F0
:10031E000900F5CFE6FF0006FBE10106F9E1120048
:10032E00800E1F18006E800E1C18005C02E11B5020
:10033E001E5C08E2F4DE0C0E3D6E7FDE1EC01BF06E
:10034E001FC01CF0376A63DFF40E046E010E056EDB
:10035E00BEDEFF0E046E030E056E2CDF00C035F000
:10036E0001C036F0010E376E010E386E230E396E57
:10037E00000E3A6E6BDF0A0E046E000E056E35C06F
:10038E0000F036C001F016DF0A0E046E000E056E88
:10039E0011DF08C000F009C001F00050300F206ED0
:1003AE000A0E046E000E056E35C000F036C001F068
:1003BE0001DF08C000F009C001F00050300F216EBF
:1003CE00020E376E010E386E200E396E000E3A6E2A
:1003DE003DDF1A0E0B6E5E0E0C6E6E0E0D6E0D2E3A
:0E03EE00FED70C2EFCD70B2EFAD70000120003
:0403FC0092881200D1
:1004000023EC02F067DFFADF80B80CD0080E3D6EF7
:100410001BDE1C501F1802E11E501B1802E11B4A74
:0A0420001C2A01D084DFF0D7FFD7BB
:1004460010EE15F01B0E006E010E016E2A0EF66EF2
:0E045600040EF76E000EF86E8FEC01F012002F
:06042A0048656C6C6F00D8
:020430000000CA
:010432003099
:020433000000C7
:0304350030300064
:0D04380054656D70657261747572653A00EF
:020000040030CA
:0E000000000C1E1EFF8381FF0FC00FE00F409B
:00000001FF
